{
  "contractName": "Deals",
  "abi": [
    {
      "inputs": [],
      "payable": false,
      "stateMutability": "nonpayable",
      "type": "constructor"
    },
    {
      "anonymous": false,
      "inputs": [
        {
          "indexed": false,
          "internalType": "uint256",
          "name": "id",
          "type": "uint256"
        },
        {
          "indexed": false,
          "internalType": "string",
          "name": "farmer_name",
          "type": "string"
        },
        {
          "indexed": false,
          "internalType": "string",
          "name": "consumer_name",
          "type": "string"
        },
        {
          "indexed": false,
          "internalType": "string",
          "name": "product",
          "type": "string"
        },
        {
          "indexed": false,
          "internalType": "uint256",
          "name": "quantity",
          "type": "uint256"
        },
        {
          "indexed": false,
          "internalType": "uint256",
          "name": "price",
          "type": "uint256"
        }
      ],
      "name": "transaction_committed",
      "type": "event"
    },
    {
      "constant": true,
      "inputs": [],
      "name": "name",
      "outputs": [
        {
          "internalType": "string",
          "name": "",
          "type": "string"
        }
      ],
      "payable": false,
      "stateMutability": "view",
      "type": "function"
    },
    {
      "constant": true,
      "inputs": [],
      "name": "transaction_count",
      "outputs": [
        {
          "internalType": "uint256",
          "name": "",
          "type": "uint256"
        }
      ],
      "payable": false,
      "stateMutability": "view",
      "type": "function"
    },
    {
      "constant": true,
      "inputs": [
        {
          "internalType": "uint256",
          "name": "",
          "type": "uint256"
        }
      ],
      "name": "transactions",
      "outputs": [
        {
          "internalType": "uint256",
          "name": "id",
          "type": "uint256"
        },
        {
          "internalType": "string",
          "name": "farmer_name",
          "type": "string"
        },
        {
          "internalType": "string",
          "name": "consumer_name",
          "type": "string"
        },
        {
          "internalType": "string",
          "name": "product",
          "type": "string"
        },
        {
          "internalType": "uint256",
          "name": "quantity",
          "type": "uint256"
        },
        {
          "internalType": "uint256",
          "name": "price",
          "type": "uint256"
        }
      ],
      "payable": false,
      "stateMutability": "view",
      "type": "function"
    },
    {
      "constant": true,
      "inputs": [
        {
          "internalType": "string",
          "name": "",
          "type": "string"
        }
      ],
      "name": "user_balance",
      "outputs": [
        {
          "internalType": "uint256",
          "name": "",
          "type": "uint256"
        }
      ],
      "payable": false,
      "stateMutability": "view",
      "type": "function"
    },
    {
      "constant": true,
      "inputs": [],
      "name": "user_count",
      "outputs": [
        {
          "internalType": "uint256",
          "name": "",
          "type": "uint256"
        }
      ],
      "payable": false,
      "stateMutability": "view",
      "type": "function"
    },
    {
      "constant": false,
      "inputs": [
        {
          "internalType": "string",
          "name": "_farmer_name",
          "type": "string"
        },
        {
          "internalType": "string",
          "name": "_consumer_name",
          "type": "string"
        },
        {
          "internalType": "string",
          "name": "_product",
          "type": "string"
        },
        {
          "internalType": "uint256",
          "name": "_quantity",
          "type": "uint256"
        },
        {
          "internalType": "uint256",
          "name": "_price",
          "type": "uint256"
        }
      ],
      "name": "add_transaction",
      "outputs": [],
      "payable": false,
      "stateMutability": "nonpayable",
      "type": "function"
    }
  ],
  "bytecode": "0x608060405260008055600360015534801561001957600080fd5b506040518060400160405280600581526020017f68656c6c6f0000000000000000000000000000000000000000000000000000008152506002908051906020019061006592919061006b565b50610110565b828054600181600116156101000203166002900490600052602060002090601f016020900481019282601f106100ac57805160ff19168380011785556100da565b828001600101855582156100da579182015b828111156100d95782518255916020019190600101906100be565b5b5090506100e791906100eb565b5090565b61010d91905b808211156101095760008160009055506001016100f1565b5090565b90565b610c8d8061011f6000396000f3fe608060405234801561001057600080fd5b50600436106100625760003560e01c806306fdde03146100675780630a292e35146100ea5780635ad7ae6d146102e75780639ace38c2146103b6578063bb805f691461054a578063f7ff50e214610568575b600080fd5b61006f610586565b6040518080602001828103825283818151815260200191508051906020019080838360005b838110156100af578082015181840152602081019050610094565b50505050905090810190601f1680156100dc5780820380516001836020036101000a031916815260200191505b509250505060405180910390f35b6102e5600480360360a081101561010057600080fd5b810190808035906020019064010000000081111561011d57600080fd5b82018360208201111561012f57600080fd5b8035906020019184600183028401116401000000008311171561015157600080fd5b91908080601f016020809104026020016040519081016040528093929190818152602001838380828437600081840152601f19601f820116905080830192505050505050509192919290803590602001906401000000008111156101b457600080fd5b8201836020820111156101c657600080fd5b803590602001918460018302840111640100000000831117156101e857600080fd5b91908080601f016020809104026020016040519081016040528093929190818152602001838380828437600081840152601f19601f8201169050808301925050505050505091929192908035906020019064010000000081111561024b57600080fd5b82018360208201111561025d57600080fd5b8035906020019184600183028401116401000000008311171561027f57600080fd5b91908080601f016020809104026020016040519081016040528093929190818152602001838380828437600081840152601f19601f8201169050808301925050505050505091929192908035906020019092919080359060200190929190505050610624565b005b6103a0600480360360208110156102fd57600080fd5b810190808035906020019064010000000081111561031a57600080fd5b82018360208201111561032c57600080fd5b8035906020019184600183028401116401000000008311171561034e57600080fd5b91908080601f016020809104026020016040519081016040528093929190818152602001838380828437600081840152601f19601f820116905080830192505050505050509192919290505050610975565b6040518082815260200191505060405180910390f35b6103e2600480360360208110156103cc57600080fd5b81019080803590602001909291905050506109a3565b60405180878152602001806020018060200180602001868152602001858152602001848103845289818151815260200191508051906020019080838360005b8381101561043c578082015181840152602081019050610421565b50505050905090810190601f1680156104695780820380516001836020036101000a031916815260200191505b50848103835288818151815260200191508051906020019080838360005b838110156104a2578082015181840152602081019050610487565b50505050905090810190601f1680156104cf5780820380516001836020036101000a031916815260200191505b50848103825287818151815260200191508051906020019080838360005b838110156105085780820151818401526020810190506104ed565b50505050905090810190601f1680156105355780820380516001836020036101000a031916815260200191505b50995050505050505050505060405180910390f35b610552610ba7565b6040518082815260200191505060405180910390f35b610570610bad565b6040518082815260200191505060405180910390f35b60028054600181600116156101000203166002900480601f01602080910402602001604051908101604052809291908181526020018280546001816001161561010002031660029004801561061c5780601f106105f15761010080835404028352916020019161061c565b820191906000526020600020905b8154815290600101906020018083116105ff57829003601f168201915b505050505081565b60008081548092919060010191905055506040518060c00160405280600054815260200186815260200185815260200184815260200183815260200182815250600360008054815260200190815260200160002060008201518160000155602082015181600101908051906020019061069e929190610bb3565b5060408201518160020190805190602001906106bb929190610bb3565b5060608201518160030190805190602001906106d8929190610bb3565b506080820151816004015560a082015181600501559050507f7c001087c468afd2a63769ffcb9f51178613bf88ebe87505d23de268b2ff41fc600054868686868660405180878152602001806020018060200180602001868152602001858152602001848103845289818151815260200191508051906020019080838360005b83811015610773578082015181840152602081019050610758565b50505050905090810190601f1680156107a05780820380516001836020036101000a031916815260200191505b50848103835288818151815260200191508051906020019080838360005b838110156107d95780820151818401526020810190506107be565b50505050905090810190601f1680156108065780820380516001836020036101000a031916815260200191505b50848103825287818151815260200191508051906020019080838360005b8381101561083f578082015181840152602081019050610824565b50505050905090810190601f16801561086c5780820380516001836020036101000a031916815260200191505b50995050505050505050505060405180910390a1806004866040518082805190602001908083835b602083106108b75780518252602082019150602081019050602083039250610894565b6001836020036101000a038019825116818451168082178552505050505050905001915050908152602001604051809103902060008282540192505081905550806004856040518082805190602001908083835b6020831061092e578051825260208201915060208101905060208303925061090b565b6001836020036101000a0380198251168184511680821785525050505050509050019150509081526020016040518091039020600082825403925050819055505050505050565b6004818051602081018201805184825260208301602085012081835280955050505050506000915090505481565b6003602052806000526040600020600091509050806000015490806001018054600181600116156101000203166002900480601f016020809104026020016040519081016040528092919081815260200182805460018160011615610100020316600290048015610a555780601f10610a2a57610100808354040283529160200191610a55565b820191906000526020600020905b815481529060010190602001808311610a3857829003601f168201915b505050505090806002018054600181600116156101000203166002900480601f016020809104026020016040519081016040528092919081815260200182805460018160011615610100020316600290048015610af35780601f10610ac857610100808354040283529160200191610af3565b820191906000526020600020905b815481529060010190602001808311610ad657829003601f168201915b505050505090806003018054600181600116156101000203166002900480601f016020809104026020016040519081016040528092919081815260200182805460018160011615610100020316600290048015610b915780601f10610b6657610100808354040283529160200191610b91565b820191906000526020600020905b815481529060010190602001808311610b7457829003601f168201915b5050505050908060040154908060050154905086565b60015481565b60005481565b828054600181600116156101000203166002900490600052602060002090601f016020900481019282601f10610bf457805160ff1916838001178555610c22565b82800160010185558215610c22579182015b82811115610c21578251825591602001919060010190610c06565b5b509050610c2f9190610c33565b5090565b610c5591905b80821115610c51576000816000905550600101610c39565b5090565b9056fea265627a7a72315820a56226510335b909dcc7ac4b87f5efe4dab7d9cfa0ea713827a5ed01257ec09b64736f6c63430005100032",
  "source": "pragma solidity >=0.4.21 <0.6.0;\r\n\r\ncontract Deals{\r\n\r\n    uint public transaction_count=0;\r\n\r\n    uint public user_count=3;\r\n\r\n    string public name;\r\n\r\n    constructor()public{\r\n        name=\"hello\";\r\n    }\r\n\r\n    mapping(uint => transaction)public transactions;\r\n    //mapping(uint => user) public user_balance;\r\n    mapping(string =>uint) public user_balance;\r\n\r\n   \r\n\r\n    struct transaction{\r\n        uint id;\r\n        string farmer_name;\r\n        string consumer_name;\r\n        string product;\r\n        uint quantity;\r\n        uint price;\r\n        //address payable farmer_address;\r\n        //address consumer_address;\r\n    }\r\n    \r\n\r\n    event transaction_committed(\r\n        uint id,\r\n        string farmer_name,\r\n        string consumer_name,\r\n        string product,\r\n        uint quantity,\r\n        uint price\r\n        //address payable farmer_address,\r\n        //address consumer_address\r\n        );\r\n\r\n\r\n    function add_transaction(\r\n        string memory _farmer_name,\r\n        string  memory _consumer_name,\r\n        string memory _product,\r\n        uint  _quantity,\r\n        uint  _price\r\n        //address payable _farmer_address\r\n        )public {\r\n\r\n        //if(user_balance[_consumer_name]<_price)return;\r\n        //require(user_balance[_consumer_name]<_price,\"LOW BALANCE\");\r\n        //Incremet the transactionCount\r\n        transaction_count++;\r\n\r\n        //balances_count++;\r\n\r\n        transactions[transaction_count]=transaction(transaction_count,\r\n                                                    _farmer_name,\r\n                                                    _consumer_name,\r\n                                                    _product,\r\n                                                    _quantity,\r\n                                                    _price\r\n                                                    //_farmer_address,\r\n                                                    //msg.sender\r\n                                                    );\r\n\r\n        //address(_farmer_address).transfer(msg.value);\r\n\r\n        emit transaction_committed(transaction_count,\r\n                                                    _farmer_name,\r\n                                                    _consumer_name,\r\n                                                    _product,\r\n                                                    _quantity,\r\n                                                    _price\r\n                                                    );\r\n\r\n        user_balance[_farmer_name]+=_price;\r\n        user_balance[_consumer_name]-=_price;\r\n\r\n        // int farmer_flag=0;\r\n        // int consumer_flag=0;\r\n        // for(uint i=0;i<user_count;i++)\r\n        // {\r\n        //     if(!farmer_flag && user_balance[i].user_name == _farmer_name){\r\n        //         user_balance[i].bal+=_price;\r\n        //         farmer_flag=1;\r\n        //     }\r\n        //     if(!consumer_flag && user_balance[i].user_name == _consumer_name){\r\n        //         user_balance[i].bal-=price;\r\n        //         consumer_flag=1;\r\n        //     }\r\n        // }\r\n        // if(!consumer_flag || !farmer_flag)\r\n        // user_count++;\r\n\r\n        // if(!consumer_flag)\r\n        // {\r\n        //     user_balance[user_count]=user(user_count,_consumer_name,-_price);\r\n        // }\r\n        // if(!farmer_flag)\r\n        // {\r\n        //     user_balance[user_count]=user(user_count,_farmer_name,_price);\r\n        // }\r\n\r\n\r\n    }\r\n\r\n\r\n\r\n\r\n}",
  "sourcePath": "E:/Hackathon/KJ/src/contracts/Deals.sol",
  "compiler": {
    "name": "solc",
    "version": "0.5.16+commit.9c3226ce.Emscripten.clang"
  },
  "schemaVersion": "3.0.22",
  "updatedAt": "2020-02-03T07:06:13.484Z",
  "networkType": "ethereum",
  "devdoc": {
    "methods": {}
  },
  "userdoc": {
    "methods": {}
  }
}